S00C00004D4355312E7372656302
S113000095C00000A3C00000A1C000009FC0000074
S11300109DC000009BC0000099C0000097C0000074
S113002095C000006FC2000091C000008FC00000A6
S11300308DC000008BC0000089C0000087C0000094
S113004085C0000083C0000081C000007FC00000A4
S11300507DC00000DC00E700F200FD00080108019B
S11300600801080108010801080108010801080144
S11300700801080108010801080108010801080134
S11300800801080108010801080108010801080124
S113009008010801DC00E700F200FD0014012D0155
S11300A046015F01770177017701770177017701D5
S11300B0770177017701770177017701770177017C
S11300C0770177017701770177017701770177016C
S11300D077017701770177017701770114012D0109
S11300E046015F0183019C01B501CE01E601E601F1
S11300F0E601E601E601E601E601E601E601E601C4
S1130100E601E601E601E601E601E601E601E601B3
S1130110E601E601E601E601E601E601E601E601A3
S1130120E601E60183019C01B501CE0111241FBE45
S1130130CFE5D8E0DEBFCDBF20E0A0E6B0E001C04F
S11301401D92A336B207E1F781D182C359CF41E0B2
S113015063E082E45ED041E060E083E45AD041E0B1
S113016061E083E456D041E060E083E4C1D040E044
S113017061E083E4BDD08AE683BF08958CBF08950F
S113018006C0089580E487B987E886B9089597B1D1
S1130190987F8770892B87B9369A3699FECF84B1B8
S11301A095B1089590E0FC01E154F109E432F105C0
S11301B078F5E65DFF4F39C389B3082E000C990B1F
S11301C002C0959587956A95E2F78170089586B384
S11301D0082E000C990B02C0959587956A95E2F755
S11301E08170089583B3082E000C990B02C0959575
S11301F087956A95E2F78170089580B3082E000C04
S1130200990B02C0959587956A95E2F781700895D8
S1130210089590E0FC01E154F109E432F10508F09D
S113022066C0E25BFF4F01C3442359F02AB381E067
S113023090E002C0880F991F6A95E2F7822B8ABB6F
S113024008952AB381E090E002C0880F991F6A954F
S1130250E2F7809582238ABB0895442359F027B39B
S113026081E090E002C0880F991F6A95E2F7822B23
S113027087BB089527B381E090E002C0880F991FDF
S11302806A95E2F78095822387BB0895442359F049
S113029024B381E090E002C0880F991F6A95E2F7C9
S11302A0822B84BB089524B381E090E002C0880FC0
S11302B0991F6A95E2F78095822384BB08954423AD
S11302C059F021B381E090E002C0880F991F6A952C
S11302D0E2F7822B81BB089521B381E090E002C054
S11302E0880F991F6A95E2F78095822381BB089550
S11302F090E0FC01E154F109E432F10508F066C034
S1130300EE58FF4F92C2442359F02BB381E090E0A2
S113031002C0880F991F6A95E2F7822B8BBB089560
S11303202BB381E090E002C0880F991F6A95E2F731
S1130330809582238BBB0895442359F028B381E030
S113034090E002C0880F991F6A95E2F7822B88BB60
S1130350089528B381E090E002C0880F991F6A9540
S1130360E2F78095822388BB0895442359F025B38E
S113037081E090E002C0880F991F6A95E2F7822B12
S113038085BB089525B381E090E002C0880F991FD2
S11303906A95E2F78095822385BB0895442359F03A
S11303A022B381E090E002C0880F991F6A95E2F7BA
S11303B0822B82BB089522B381E090E002C0880FB3
S11303C0991F6A95E2F78095822382BB089533C210
S11303D0089588E18AB986E880BD83E389B90895E0
S11303E05D9BFECF8CB9089583E7FADF84E7F8CFED
S11303F00895BC0180E090E062D12FE832EC45E042
S113040050E4C9D030D1262F372F2531310538F4A7
S113041080E0B4DE60E080E090E0D9CF0895293236
S1130420310530F4862F880F860F880FA7CE0895E4
S11304302333310518F48FEFA1CE08958FEF9EDE9C
S113044061E080E090E0C3DF52C00895C2DF9ADE2D
S11304507EDE45D080E094DEEC0160E080E090E058
S1130460B6DF40E060E082E6D4DE60E082E69ADE59
S11304708823E1F0BE0180E090E021D12FE832EC46
S113048045E050E488D06B017C0120E030E040E29C
S113049052E4C7D1882354F020E030E048E452E429
S11304A0C701B60174D018160CF09EDF80E068DE38
S11304B0EC01BC0180E090E002D12FE832EC45E091
S11304C050E469D020E030E048E452E460D088236E
S11304D00CF411D0CE018DDF8C2F82DFC6CF1FBC70
S11304E083E08EBD89B7846089BF7894089581E0E4
S11304F08093600008951092600010926200109240
S1130500610008951F920F920FB60F9211242F933A
S11305103F934F935F936F937F938F939F93AF9387
S1130520BF93EF93FF93809160008823F9F080914B
S11305306100909162000196909362008093610043
S11305408091610090916200079780F062E080E002
S113055090E03DDF41E062E083E45BDE41E062E0A5
S113056083E4C6DEC8DF89E081BDFFCFFF91EF9150
S1130570BF91AF919F918F917F916F915F914F91B7
S11305803F912F910F900FBE0F901F901895D4D0CC
S113059008F481E008950CD00AC102D140F0F9D0EA
S11305A030F021F45F3F19F0EBC0511134C1EEC0BB
S11305B00FD198F39923C9F35523B1F3951B550B28
S11305C0BB27AA2762177307840738F09F5F5F4F22
S11305D0220F331F441FAA1FA9F333D00E2E3AF063
S11305E0E0E830D091505040E695001CCAF729D07D
S11305F0FE2F27D0660F771F881FBB1F26173707CC
S11306004807AB07B0E809F0BB0B802DBF01FF27FB
S113061093585F4F2AF09E3F510568F0B1C0FBC06C
S11306205F3FECF3983EDCF3869577956795B79535
S1130630F7959F5FC9F7880F911D9695879597F950
S11306400895E1E0660F771F881FBB1F62177307C9
S11306508407BA0720F0621B730B840BBA0BEE1FDE
S113066088F7E0950895BCD088F09F5790F0B92F93
S11306709927B751A0F0D1F0660F771F881F991FF3
S11306801AF0BA95C9F712C0B13081F0C3D0B1E005
S11306900895C0C0672F782F8827B85F39F0B93F15
S11306A0CCF3869577956795B395D9F73EF49095F5
S11306B08095709561957F4F8F4F9F4F0895E89473
S11306C009C097FB3EF490958095709561957F4F96
S11306D08F4F9F4F9923A9F0F92F96E9BB27939544
S11306E0F695879577956795B795F111F8CFFAF454
S11306F0BB0F11F460FF1BC06F5F7F4F8F4F9F4F85
S113070016C0882311F096E911C0772321F09EE8E2
S1130710872F762F05C0662371F096E8862F70E048
S113072060E02AF09A95660F771F881FDAF7880F22
S11307309695879597F90895990F0008550FAA0B78
S1130740E0E8FEEF16161706E807F907C0F01216E0
S11307501306E407F50798F0621B730B840B950BE3
S113076039F40A2661F0232B242B252B21F4089538
S11307700A2609F4A140A6958FEF811D811D0895D5
S113078097F99F6780E870E060E008959FEF80EC40
S1130790089500240A9416161706180609060895E3
S11307A000240A9412161306140605060895092E49
S11307B00394000C11F4882352F0BB0F40F4BF2BB8
S11307C011F460FF04C06F5F7F4F8F4F9F4F0895F8
S11307D057FD9058440F551F59F05F3F71F04795EE
S11307E0880F97FB991F61F09F3F79F087950895D3
S11307F0121613061406551FF2CF4695F1DF08C0F2
S1130800161617061806991FF1CF8695710561050E
S113081008940895E894BB2766277727CB0197F9B6
S113082008958ADF08F48FEF0895EE0FFF1F0590F7
S1130830F491E02D0994262FE199FECF9FBB8EBB46
S11308402DBB0FB6F894E29AE19A0FBE0196089573
S1070850F894FFCF46
S9030000FC
