:100000000C9472000C9484000C9484000C94840072
:100010000C9484000C9484000C9484000C94840050
:100020000C9484000C94BD020C9484000C94840005
:100030000C9484000C9484000C9484000C94840030
:100040000C9484000C9484000C9484000C94840020
:100050000C948400E000F90012012B0143014301DC
:100060004301430143014301430143014301430170
:100070004301430143014301430143014301430160
:100080004301430143014301430143014301430150
:1000900043014301E000F90012012B015001690105
:1000A00082019B01B301B301B301B301B301B301F9
:1000B000B301B301B301B301B301B301B301B301A0
:1000C000B301B301B301B301B301B301B301B30190
:1000D000B301B301B301B301B301B301500169012D
:1000E00082019B0111241FBECFE5D8E0DEBFCDBF4A
:1000F00020E0A0E6B0E001C01D92A436B207E1F70F
:100100000E941B020C9477040C94000041E063E011
:1001100082E40E94D40041E060E081E40E94D400C7
:1001200041E061E081E40E94D40041E060E081E4CC
:100130000E94440140E061E081E40E9444018AE6BB
:1001400083BF08958CBF0895CF93DF93C82FD62F18
:1001500041E00E94D40041E06D2F8C2F0E944401A9
:10016000DF91CF910895CF93DF93C82FD62F41E031
:100170000E94D40040E06D2F8C2F0E944401DF913B
:10018000CF91089580E487B987E886B9089587708C
:1001900097B1987F892B87B986B1806486B93699E3
:1001A000FECF84B195B1089590E0FC01E154F109CE
:1001B000E432F10508F067C0E65DFF4F0C944E0491
:1001C000442359F02AB381E090E002C0880F991FC0
:1001D0006A95E2F7822B8ABB08952AB381E090E00A
:1001E00002C0880F991F6A95E2F7809582238ABB27
:1001F0000895442359F027B381E090E002C0880FAE
:10020000991F6A95E2F7822B87BB089527B381E097
:1002100090E002C0880F991F6A95E2F780958223CB
:1002200087BB0895442359F024B381E090E002C0D5
:10023000880F991F6A95E2F7822B84BB089524B337
:1002400081E090E002C0880F991F6A95E2F78095DF
:10025000822384BB0895442359F021B381E090E0C8
:1002600002C0880F991F6A95E2F7822B81BB08951F
:1002700021B381E090E002C0880F991F6A95E2F7F0
:100280008095822381BB089590E0FC01E154F1093F
:10029000E432F10508F067C0E25BFF4F0C944E04B6
:1002A000442359F02BB381E090E002C0880F991FDE
:1002B0006A95E2F7822B8BBB08952BB381E090E027
:1002C00002C0880F991F6A95E2F7809582238BBB45
:1002D0000895442359F028B381E090E002C0880FCC
:1002E000991F6A95E2F7822B88BB089528B381E0B5
:1002F00090E002C0880F991F6A95E2F780958223EB
:1003000088BB0895442359F025B381E090E002C0F2
:10031000880F991F6A95E2F7822B85BB089525B354
:1003200081E090E002C0880F991F6A95E2F78095FE
:10033000822385BB0895442359F022B381E090E0E5
:1003400002C0880F991F6A95E2F7822B82BB08953D
:1003500022B381E090E002C0880F991F6A95E2F70E
:100360008095822382BB089588E18AB986E880BDA2
:1003700083E389B908955F9BFECF8CB1089580E037
:100380000E94A200FFCFCF93C82F0E94BB01C337AA
:1003900029F4843719F48C2F0E94BF01682F70E074
:1003A00080E090E00E94AE0327ED33EA40E050E4A5
:1003B0000E940B030E947D03862FCF910895853103
:1003C00090F462E081E40E94A40060E083E40E9473
:1003D000B30061E083E40E94B30041E063E081E4A4
:1003E0000E9444010895893290F462E081E40E9401
:1003F000B30060E083E40E94B30061E083E40E9404
:10040000A40041E063E081E40E9444010895833345
:1004100088F462E081E40E94B30060E083E40E941B
:10042000A40061E083E40E94B30040E063E081E463
:100430000E94440108950E94B4010E94C2000E94DB
:1004400086000E94A8020E94480241E063E081E425
:100450000E94D4000E94BB010E94C30187E00E9459
:10046000C7000E94BB010E94C301C82F0E94DF0188
:1004700087E00E94C700C23328F40E94A2000E94B5
:10048000B402EFCF0E94B00280E00E94A200E9CF48
:1004900041E050E067E070E084E490E00E94D40026
:1004A00082E685BD08958A3519F18A3570F444EFE6
:1004B00051E0849F9001859F300D1124C9016AE5A8
:1004C00070E00E943A04685114C0282F30E02A5589
:1004D000310944EF51E0249FC001259F900D349FC6
:1004E000900D11246AE570E00E943A04645201C044
:1004F0006CED20E030E0362F369527953295229529
:100500002F7023273F702327A7E4B3E00E945404F1
:10051000969587959695879596958795815083BDF5
:100520000895CF93DF93D82FC0E00DC08C2F0E9489
:1005300053022FED83E994E0215080409040E1F791
:1005400000C00000CF5FDC1788F7DF91CF910895DE
:100550001FBC83E08EBD89B7846089BF78940895FD
:1005600081E0809361000895109261001092630011
:10057000109262001092600008951F920F920FB6C1
:100580000F9211242F933F934F935F936F937F9319
:100590008F939F93AF93BF93EF93FF9380916100ED
:1005A000882341F1809162009091630001969093BD
:1005B00063008093620080916200909163000797CE
:1005C00070F08091600081110AC081E0809360002A
:1005D00066E084E40E94A4008AE50E949102809172
:1005E0006200909163000C9728F00E94B40289E0A9
:1005F00081BDFFCFFF91EF91BF91AF919F918F91FF
:100600007F916F915F914F913F912F910F900FBE0E
:100610000F901F9018950E941F030C9400040E94D5
:10062000F90358F00E94F20340F029F45F3F29F0EB
:100630000C94E90351110C9434040C94EF030E94C0
:10064000110468F39923B1F3552391F3951B550BCE
:10065000BB27AA2762177307840738F09F5F5F4F95
:10066000220F331F441FAA1FA9F335D00E2E3AF0D4
:10067000E0E832D091505040E695001CCAF72BD0EC
:10068000FE2F29D0660F771F881FBB1F261737073D
:100690004807AB07B0E809F0BB0B802DBF01FF276F
:1006A00093585F4F3AF09E3F510578F00C94E90360
:1006B0000C9434045F3FE4F3983ED4F38695779529
:1006C0006795B795F7959F5FC9F7880F911D969528
:1006D000879597F90895E1E0660F771F881FBB1F84
:1006E000621773078407BA0720F0621B730B840B31
:1006F000BA0BEE1F88F7E09508950E94190488F060
:100700009F5798F0B92F9927B751B0F0E1F0660FD5
:10071000771F881F991F1AF0BA95C9F714C0B13016
:1007200091F00E943304B1E008950C943304672FD4
:10073000782F8827B85F39F0B93FCCF38695779545
:100740006795B395D9F73EF490958095709561952E
:100750007F4F8F4F9F4F0895E89409C097FB3EF459
:1007600090958095709561957F4F8F4F9F4F9923FE
:10077000A9F0F92F96E9BB279395F695879577957C
:100780006795B795F111F8CFFAF4BB0F11F460FF3C
:100790001BC06F5F7F4F8F4F9F4F16C0882311F094
:1007A00096E911C0772321F09EE8872F762F05C0A8
:1007B000662371F096E8862F70E060E02AF09A9543
:1007C000660F771F881FDAF7880F9695879597F938
:1007D000089597F99F6780E870E060E008959FEFC3
:1007E00080EC089500240A941616170618060906C8
:1007F000089500240A941216130614060506089597
:10080000092E0394000C11F4882352F0BB0F40F41E
:10081000BF2B11F460FF04C06F5F7F4F8F4F9F4F5E
:10082000089557FD9058440F551F59F05F3F71F0E0
:100830004795880F97FB991F61F09F3F79F0879547
:100840000895121613061406551FF2CF4695F1DFD0
:1008500008C0161617061806991FF1CF8695710560
:10086000610508940895E894BB2766277727CB0194
:1008700097F9089597FB072E16F4009407D077FD9B
:1008800009D00E94630407FC05D03EF49095819541
:100890009F4F0895709561957F4F0895EE0FFF1F4C
:1008A0000590F491E02D0994A29FB001B39FC0017F
:1008B000A39F700D811D1124911DB29F700D811D8C
:1008C0001124911D0895AA1BBB1B51E107C0AA1F4B
:1008D000BB1FA617B70710F0A61BB70B881F991FE1
:1008E0005A95A9F780959095BC01CD010895F8948B
:0208F000FFCF38
:00000001FF
